{
  "_format": "hh-sol-artifact-1",
  "contractName": "FlareDaemon",
  "sourceName": "contracts/genesis/implementation/FlareDaemon.sol",
  "abi": [
    {
      "inputs": [],
      "stateMutability": "nonpayable",
      "type": "constructor"
    },
    {
      "anonymous": false,
      "inputs": [
        {
          "indexed": false,
          "internalType": "address",
          "name": "theContract",
          "type": "address"
        },
        {
          "indexed": false,
          "internalType": "uint256",
          "name": "atBlock",
          "type": "uint256"
        },
        {
          "indexed": false,
          "internalType": "string",
          "name": "theMessage",
          "type": "string"
        },
        {
          "indexed": false,
          "internalType": "uint256",
          "name": "gasConsumed",
          "type": "uint256"
        }
      ],
      "name": "ContractDaemonizeErrored",
      "type": "event"
    },
    {
      "anonymous": false,
      "inputs": [
        {
          "indexed": false,
          "internalType": "address",
          "name": "theContract",
          "type": "address"
        },
        {
          "indexed": false,
          "internalType": "uint256",
          "name": "gasConsumed",
          "type": "uint256"
        }
      ],
      "name": "ContractDaemonized",
      "type": "event"
    },
    {
      "anonymous": false,
      "inputs": [
        {
          "indexed": false,
          "internalType": "address",
          "name": "theContract",
          "type": "address"
        },
        {
          "indexed": false,
          "internalType": "uint256",
          "name": "blockHoldoffsRemaining",
          "type": "uint256"
        }
      ],
      "name": "ContractHeldOff",
      "type": "event"
    },
    {
      "anonymous": false,
      "inputs": [
        {
          "indexed": false,
          "internalType": "uint256",
          "name": "numberOfSkippedConstracts",
          "type": "uint256"
        }
      ],
      "name": "ContractsSkippedOutOfGas",
      "type": "event"
    },
    {
      "anonymous": false,
      "inputs": [
        {
          "indexed": false,
          "internalType": "address",
          "name": "proposedGovernance",
          "type": "address"
        }
      ],
      "name": "GovernanceProposed",
      "type": "event"
    },
    {
      "anonymous": false,
      "inputs": [
        {
          "indexed": false,
          "internalType": "address",
          "name": "oldGovernance",
          "type": "address"
        },
        {
          "indexed": false,
          "internalType": "address",
          "name": "newGoveranance",
          "type": "address"
        }
      ],
      "name": "GovernanceUpdated",
      "type": "event"
    },
    {
      "anonymous": false,
      "inputs": [
        {
          "indexed": false,
          "internalType": "contract IInflationGenesis",
          "name": "theNewContract",
          "type": "address"
        },
        {
          "indexed": false,
          "internalType": "contract IInflationGenesis",
          "name": "theOldContract",
          "type": "address"
        }
      ],
      "name": "InflationSet",
      "type": "event"
    },
    {
      "anonymous": false,
      "inputs": [
        {
          "indexed": false,
          "internalType": "uint256",
          "name": "amountWei",
          "type": "uint256"
        }
      ],
      "name": "MintingReceived",
      "type": "event"
    },
    {
      "anonymous": false,
      "inputs": [
        {
          "indexed": false,
          "internalType": "uint256",
          "name": "amountWei",
          "type": "uint256"
        }
      ],
      "name": "MintingRequestReceived",
      "type": "event"
    },
    {
      "anonymous": false,
      "inputs": [
        {
          "indexed": false,
          "internalType": "uint256",
          "name": "amountWei",
          "type": "uint256"
        }
      ],
      "name": "MintingRequestTriggered",
      "type": "event"
    },
    {
      "anonymous": false,
      "inputs": [
        {
          "indexed": false,
          "internalType": "uint256",
          "name": "amountWei",
          "type": "uint256"
        }
      ],
      "name": "MintingWithdrawn",
      "type": "event"
    },
    {
      "anonymous": false,
      "inputs": [
        {
          "indexed": false,
          "internalType": "contract IFlareDaemonize",
          "name": "theContract",
          "type": "address"
        },
        {
          "indexed": false,
          "internalType": "bool",
          "name": "add",
          "type": "bool"
        }
      ],
      "name": "RegistrationUpdated",
      "type": "event"
    },
    {
      "anonymous": false,
      "inputs": [
        {
          "indexed": false,
          "internalType": "uint256",
          "name": "amountWei",
          "type": "uint256"
        }
      ],
      "name": "SelfDestructReceived",
      "type": "event"
    },
    {
      "inputs": [],
      "name": "addressUpdater",
      "outputs": [
        {
          "internalType": "address",
          "name": "",
          "type": "address"
        }
      ],
      "stateMutability": "view",
      "type": "function"
    },
    {
      "inputs": [],
      "name": "blockHoldoff",
      "outputs": [
        {
          "internalType": "uint256",
          "name": "",
          "type": "uint256"
        }
      ],
      "stateMutability": "view",
      "type": "function"
    },
    {
      "inputs": [],
      "name": "claimGovernance",
      "outputs": [],
      "stateMutability": "nonpayable",
      "type": "function"
    },
    {
      "inputs": [],
      "name": "errorData",
      "outputs": [
        {
          "internalType": "uint192",
          "name": "totalDaemonizedErrors",
          "type": "uint192"
        },
        {
          "internalType": "uint64",
          "name": "lastErrorTypeIndex",
          "type": "uint64"
        }
      ],
      "stateMutability": "view",
      "type": "function"
    },
    {
      "inputs": [],
      "name": "getDaemonizedContractsData",
      "outputs": [
        {
          "internalType": "contract IFlareDaemonize[]",
          "name": "_daemonizeContracts",
          "type": "address[]"
        },
        {
          "internalType": "uint256[]",
          "name": "_gasLimits",
          "type": "uint256[]"
        },
        {
          "internalType": "uint256[]",
          "name": "_blockHoldoffsRemaining",
          "type": "uint256[]"
        }
      ],
      "stateMutability": "view",
      "type": "function"
    },
    {
      "inputs": [],
      "name": "getNextMintRequestAllowedTs",
      "outputs": [
        {
          "internalType": "uint256",
          "name": "",
          "type": "uint256"
        }
      ],
      "stateMutability": "view",
      "type": "function"
    },
    {
      "inputs": [],
      "name": "governance",
      "outputs": [
        {
          "internalType": "address",
          "name": "",
          "type": "address"
        }
      ],
      "stateMutability": "view",
      "type": "function"
    },
    {
      "inputs": [],
      "name": "inflation",
      "outputs": [
        {
          "internalType": "contract IInflationGenesis",
          "name": "",
          "type": "address"
        }
      ],
      "stateMutability": "view",
      "type": "function"
    },
    {
      "inputs": [
        {
          "internalType": "address",
          "name": "_governance",
          "type": "address"
        }
      ],
      "name": "initialise",
      "outputs": [],
      "stateMutability": "pure",
      "type": "function"
    },
    {
      "inputs": [],
      "name": "initialiseFixedAddress",
      "outputs": [
        {
          "internalType": "address",
          "name": "",
          "type": "address"
        }
      ],
      "stateMutability": "nonpayable",
      "type": "function"
    },
    {
      "inputs": [],
      "name": "lastMintRequestTs",
      "outputs": [
        {
          "internalType": "uint256",
          "name": "",
          "type": "uint256"
        }
      ],
      "stateMutability": "view",
      "type": "function"
    },
    {
      "inputs": [],
      "name": "lastUpdateMaxMintRequestTs",
      "outputs": [
        {
          "internalType": "uint256",
          "name": "",
          "type": "uint256"
        }
      ],
      "stateMutability": "view",
      "type": "function"
    },
    {
      "inputs": [],
      "name": "maxMintingRequestWei",
      "outputs": [
        {
          "internalType": "uint256",
          "name": "",
          "type": "uint256"
        }
      ],
      "stateMutability": "view",
      "type": "function"
    },
    {
      "inputs": [
        {
          "internalType": "address",
          "name": "_governance",
          "type": "address"
        }
      ],
      "name": "proposeGovernance",
      "outputs": [],
      "stateMutability": "nonpayable",
      "type": "function"
    },
    {
      "inputs": [],
      "name": "proposedGovernance",
      "outputs": [
        {
          "internalType": "address",
          "name": "",
          "type": "address"
        }
      ],
      "stateMutability": "view",
      "type": "function"
    },
    {
      "inputs": [
        {
          "components": [
            {
              "internalType": "contract IFlareDaemonize",
              "name": "daemonizedContract",
              "type": "address"
            },
            {
              "internalType": "uint256",
              "name": "gasLimit",
              "type": "uint256"
            }
          ],
          "internalType": "struct FlareDaemon.Registration[]",
          "name": "_registrations",
          "type": "tuple[]"
        }
      ],
      "name": "registerToDaemonize",
      "outputs": [],
      "stateMutability": "nonpayable",
      "type": "function"
    },
    {
      "inputs": [
        {
          "internalType": "uint256",
          "name": "_amountWei",
          "type": "uint256"
        }
      ],
      "name": "requestMinting",
      "outputs": [],
      "stateMutability": "nonpayable",
      "type": "function"
    },
    {
      "inputs": [
        {
          "internalType": "address",
          "name": "_addressUpdater",
          "type": "address"
        }
      ],
      "name": "setAddressUpdater",
      "outputs": [],
      "stateMutability": "nonpayable",
      "type": "function"
    },
    {
      "inputs": [
        {
          "internalType": "uint256",
          "name": "_blockHoldoff",
          "type": "uint256"
        }
      ],
      "name": "setBlockHoldoff",
      "outputs": [],
      "stateMutability": "nonpayable",
      "type": "function"
    },
    {
      "inputs": [
        {
          "internalType": "uint256",
          "name": "_maxMintingRequestWei",
          "type": "uint256"
        }
      ],
      "name": "setMaxMintingRequest",
      "outputs": [],
      "stateMutability": "nonpayable",
      "type": "function"
    },
    {
      "inputs": [
        {
          "internalType": "uint256",
          "name": "startIndex",
          "type": "uint256"
        },
        {
          "internalType": "uint256",
          "name": "numErrorTypesToShow",
          "type": "uint256"
        }
      ],
      "name": "showDaemonizedErrors",
      "outputs": [
        {
          "internalType": "uint256[]",
          "name": "_lastErrorBlock",
          "type": "uint256[]"
        },
        {
          "internalType": "uint256[]",
          "name": "_numErrors",
          "type": "uint256[]"
        },
        {
          "internalType": "string[]",
          "name": "_errorString",
          "type": "string[]"
        },
        {
          "internalType": "address[]",
          "name": "_erroringContract",
          "type": "address[]"
        },
        {
          "internalType": "uint256",
          "name": "_totalDaemonizedErrors",
          "type": "uint256"
        }
      ],
      "stateMutability": "view",
      "type": "function"
    },
    {
      "inputs": [],
      "name": "showLastDaemonizedError",
      "outputs": [
        {
          "internalType": "uint256[]",
          "name": "_lastErrorBlock",
          "type": "uint256[]"
        },
        {
          "internalType": "uint256[]",
          "name": "_numErrors",
          "type": "uint256[]"
        },
        {
          "internalType": "string[]",
          "name": "_errorString",
          "type": "string[]"
        },
        {
          "internalType": "address[]",
          "name": "_erroringContract",
          "type": "address[]"
        },
        {
          "internalType": "uint256",
          "name": "_totalDaemonizedErrors",
          "type": "uint256"
        }
      ],
      "stateMutability": "view",
      "type": "function"
    },
    {
      "inputs": [],
      "name": "systemLastTriggeredAt",
      "outputs": [
        {
          "internalType": "uint256",
          "name": "",
          "type": "uint256"
        }
      ],
      "stateMutability": "view",
      "type": "function"
    },
    {
      "inputs": [],
      "name": "totalMintingReceivedWei",
      "outputs": [
        {
          "internalType": "uint256",
          "name": "",
          "type": "uint256"
        }
      ],
      "stateMutability": "view",
      "type": "function"
    },
    {
      "inputs": [],
      "name": "totalMintingRequestedWei",
      "outputs": [
        {
          "internalType": "uint256",
          "name": "",
          "type": "uint256"
        }
      ],
      "stateMutability": "view",
      "type": "function"
    },
    {
      "inputs": [],
      "name": "totalMintingWithdrawnWei",
      "outputs": [
        {
          "internalType": "uint256",
          "name": "",
          "type": "uint256"
        }
      ],
      "stateMutability": "view",
      "type": "function"
    },
    {
      "inputs": [],
      "name": "totalSelfDestructReceivedWei",
      "outputs": [
        {
          "internalType": "uint256",
          "name": "",
          "type": "uint256"
        }
      ],
      "stateMutability": "view",
      "type": "function"
    },
    {
      "inputs": [
        {
          "internalType": "address",
          "name": "_governance",
          "type": "address"
        }
      ],
      "name": "transferGovernance",
      "outputs": [],
      "stateMutability": "nonpayable",
      "type": "function"
    },
    {
      "inputs": [],
      "name": "trigger",
      "outputs": [
        {
          "internalType": "uint256",
          "name": "_toMintWei",
          "type": "uint256"
        }
      ],
      "stateMutability": "nonpayable",
      "type": "function"
    },
    {
      "inputs": [],
      "name": "unregisterAll",
      "outputs": [],
      "stateMutability": "nonpayable",
      "type": "function"
    },
    {
      "inputs": [
        {
          "internalType": "bytes32[]",
          "name": "_contractNameHashes",
          "type": "bytes32[]"
        },
        {
          "internalType": "address[]",
          "name": "_contractAddresses",
          "type": "address[]"
        }
      ],
      "name": "updateContractAddresses",
      "outputs": [],
      "stateMutability": "nonpayable",
      "type": "function"
    }
  ],
  "bytecode": "0x608060405234801561001057600080fd5b50600280546001600160a01b0319169055612d16806100306000396000f3fe608060405234801561001057600080fd5b50600436106101e55760003560e01c80638ccf77a01161010f578063c9f960eb116100a2578063e371aef011610071578063e371aef014610350578063e9de7d6014610366578063ecdda0dd14610379578063ed21b6e41461038c576101e5565b8063c9f960eb14610325578063d38bfff41461032d578063d48a38df14610340578063dded1b4714610348576101e5565b8063aea36b53116100de578063aea36b53146102e4578063b00c0b76146102f7578063be0522e01461030a578063c373a08e14610312576101e5565b80638ccf77a0146102b95780639d6a890f146102c1578063a6817ace146102d4578063a9c0d0a5146102dc576101e5565b806362da19a5116101875780637299361511610156578063729936151461028e5780637fec8d3814610296578063870196b81461029e5780638be2fb86146102b1576101e5565b806362da19a514610252578063639031431461025a57806363d4a53a14610262578063689c49991461027b576101e5565b80635042916c116101c35780635042916c146102185780635aa6e6751461022d5780635d36b1901461024257806360f7ac971461024a576101e5565b806310663750146101ea5780631d76dea1146102085780634f6a77b514610210575b600080fd5b6101f26103a3565b6040516101ff9190612b87565b60405180910390f35b6101f26103a9565b6101f26103af565b61022b6102263660046128a1565b6103b5565b005b6102356103c2565b6040516101ff9190612978565b61022b6103d1565b610235610493565b6101f26104a2565b6101f26104a8565b61026a6104b8565b6040516101ff959493929190612a7e565b61022b610289366004612731565b6104f3565b6101f2610507565b6101f261050d565b61022b6102ac3660046128a1565b6105b8565b6101f26106c8565b61022b6106ce565b61022b6102cf36600461265f565b6106e0565b6101f26106e2565b6102356106e8565b61022b6102f236600461265f565b6106f7565b61022b61030536600461267b565b610721565b6102356107d6565b61022b61032036600461265f565b6107e5565b610235610841565b61022b61033b36600461265f565b610880565b6101f26108f9565b6101f26108ff565b610358610905565b6040516101ff929190612b65565b61022b6103743660046128a1565b610926565b61026a6103873660046128b9565b610a5e565b610394610dbb565b6040516101ff93929190612a09565b60065481565b600a5481565b60095481565b6103bd610f80565b600d55565b6000546001600160a01b031681565b6001546001600160a01b03163314610420576040805162461bcd60e51b815260206004820152600d60248201526c1b9bdd0818db185a5b585a5b9d609a1b604482015290519081900360640190fd5b600054600154604080516001600160a01b03938416815292909116602083015280517f434a2db650703b36c824e745330d6397cdaa9ee2cc891a4938ae853e1c50b68d9281900390910190a160018054600080546001600160a01b03199081166001600160a01b03841617909155169055565b6001546001600160a01b031681565b60055481565b60006104b2610fd1565b90505b90565b600c546060908190819081906000906104e290600160c01b90046001600160401b03166001610a5e565b945094509450945094509091929394565b6104fb610f80565b61050481610fdc565b50565b60085481565b6003546000906001600160a01b031661055257610552306040518060400160405280600e81526020016d696e666c6174696f6e207a65726f60901b815250600061128e565b60026001609c1b01331461056557600080fd5b61056d611452565b90506000610579611cbd565b90504781146105b4576105b4306040518060400160405280600e81526020016d6f7574206f662062616c616e636560901b815250600061128e565b5090565b6105c0610f80565b6009546105d090606e6064611ce2565b811115604051806040016040528060118152602001700dac2f040dad2dce840e8dede40d0d2ced607b1b815250906106245760405162461bcd60e51b815260040161061b9190612b52565b60405180910390fd5b5060408051808201909152601081526f6d6178206d696e74206973207a65726f60801b60208201528161066a5760405162461bcd60e51b815260040161061b9190612b52565b5062015180600b54014211604051806040016040528060128152602001711d1a5b594819d85c081d1bdbc81cda1bdc9d60721b815250906106be5760405162461bcd60e51b815260040161061b9190612b52565b5060095542600b55565b60045481565b6106d6610f80565b6106de611dea565b565bfe5b600b5481565b6002546001600160a01b031681565b6106ff610f80565b600280546001600160a01b0319166001600160a01b0392909216919091179055565b6002546001600160a01b03163314610777576040805162461bcd60e51b815260206004820152601460248201527337b7363c9030b2323932b9b9903ab83230ba32b960611b604482015290519081900360640190fd5b6107a882826040518060400160405280600e81526020016d20b2323932b9b9aab83230ba32b960911b815250611e9a565b600280546001600160a01b0319166001600160a01b03929092169190911790556107d28282611fc7565b5050565b6003546001600160a01b031681565b6107ed610f80565b600180546001600160a01b0383166001600160a01b0319909116811790915560408051918252517f1f95fb40be3a947982072902a887b521248d1d8931a39eb38f84f4d6fd758b699181900360200190a150565b60105460009060ff1661086e576010805460ff1916600117905560006108656121ef565b91506104b59050565b506000546001600160a01b03166104b5565b610888610f80565b600054604080516001600160a01b039283168152918316602083015280517f434a2db650703b36c824e745330d6397cdaa9ee2cc891a4938ae853e1c50b68d9281900390910190a1600080546001600160a01b039092166001600160a01b0319928316179055600180549091169055565b600d5481565b60075481565b600c546001600160c01b03811690600160c01b90046001600160401b031682565b60035460408051808201909152600d81526c3737ba1034b7333630ba34b7b760991b602082015233916001600160a01b031682146109775760405162461bcd60e51b815260040161061b9190612b52565b5060095482111560405180604001604052806007815260200166746f6f2062696760c81b815250906109bc5760405162461bcd60e51b815260040161061b9190612b52565b50426109c6610fd1565b10604051806040016040528060098152602001683a37b79037b33a32b760b91b81525090610a075760405162461bcd60e51b815260040161061b9190612b52565b5081156107d25742600a55600554610a1f908361220f565b6005556040517f4c4f1efc376f31abeb51b72c5f9ed81cf4016591312bb02337e58149dcfaaab490610a52908490612b87565b60405180910390a15050565b606080606080600060158054905087106040518060400160405280601081526020016f0e6e8c2e4e840d2dcc8caf040d0d2ced60831b81525090610ab55760405162461bcd60e51b815260040161061b9190612b52565b506015546000908888011115610ad057601554889003610ad2565b865b9050806001600160401b0381118015610aea57600080fd5b50604051908082528060200260200182016040528015610b14578160200160208202803683370190505b509550806001600160401b0381118015610b2d57600080fd5b50604051908082528060200260200182016040528015610b57578160200160208202803683370190505b509450806001600160401b0381118015610b7057600080fd5b50604051908082528060200260200182016040528015610ba457816020015b6060815260200190600190039081610b8f5790505b509350806001600160401b0381118015610bbd57600080fd5b50604051908082528060200260200182016040528015610be7578160200160208202803683370190505b50925060005b81811015610d9f5760006015828b0181548110610c0657fe5b6000918252602080832090910154808352601490915260409091205489519192506001600160c01b031690899084908110610c3d57fe5b6020026020010181815250506014600082815260200190815260200160002060000160189054906101000a90046001600160401b03166001600160401b0316878381518110610c8857fe5b6020908102919091018101919091526000828152601482526040908190206002908101805483516001821615610100026000190190911692909204601f81018590048502830185019093528282529092909190830182828015610d2c5780601f10610d0157610100808354040283529160200191610d2c565b820191906000526020600020905b815481529060010190602001808311610d0f57829003601f168201915b5050505050868381518110610d3d57fe5b60200260200101819052506014600082815260200190815260200160002060010160009054906101000a90046001600160a01b0316858381518110610d7e57fe5b6001600160a01b039092166020928302919091019091015250600101610bed565b5050600c549497939650919450926001600160c01b0316919050565b60115460609081908190806001600160401b0381118015610ddb57600080fd5b50604051908082528060200260200182016040528015610e05578160200160208202803683370190505b509350806001600160401b0381118015610e1e57600080fd5b50604051908082528060200260200182016040528015610e48578160200160208202803683370190505b509250806001600160401b0381118015610e6157600080fd5b50604051908082528060200260200182016040528015610e8b578160200160208202803683370190505b50915060005b81811015610f7957600060118281548110610ea857fe5b9060005260206000200160009054906101000a90046001600160a01b0316905080868381518110610ed557fe5b60200260200101906001600160a01b031690816001600160a01b03168152505060126000826001600160a01b03166001600160a01b0316815260200190815260200160002054858381518110610f2757fe5b60200260200101818152505060136000826001600160a01b03166001600160a01b0316815260200190815260200160002054848381518110610f6557fe5b602090810291909101015250600101610e91565b5050909192565b6000546001600160a01b031633146106de576040805162461bcd60e51b815260206004820152600f60248201526e6f6e6c7920676f7665726e616e636560881b604482015290519081900360640190fd5b600a54620143700190565b8051604080518082019091526008815267746f6f206d616e7960c01b6020820152600a82111561101f5760405162461bcd60e51b815260040161061b9190612b52565b50611028611dea565b60005b818110156112895760006001600160a01b031683828151811061104a57fe5b6020026020010151600001516001600160a01b031614156040518060400160405280600c81526020016b61646472657373207a65726f60a01b815250906110a45760405162461bcd60e51b815260040161061b9190612b52565b5060115460005b8181101561114857601181815481106110c057fe5b60009182526020909120015485516001600160a01b03909116908690859081106110e657fe5b6020026020010151600001516001600160a01b031614156040518060400160405280600b81526020016a647570206164647265737360a81b8152509061113f5760405162461bcd60e51b815260040161061b9190612b52565b506001016110ab565b50601184838151811061115757fe5b6020908102919091018101515182546001810184556000938452919092200180546001600160a01b0319166001600160a01b0390921691909117905583518490839081106111a157fe5b602002602001015160200151601260008685815181106111bd57fe5b6020026020010151600001516001600160a01b03166001600160a01b03168152602001908152602001600020819055506000601360008685815181106111ff57fe5b6020026020010151600001516001600160a01b03166001600160a01b03168152602001908152602001600020819055507f86d03f430c7616021073d7a71766f632f1ce19f289aa989534d9f4732253eb5984838151811061125c57fe5b6020026020010151600001516001604051611278929190612b1d565b60405180910390a15060010161102b565b505050565b600083836040516020016112a392919061298c565b60408051808303601f190181529181528151602092830120600081815260149093529120805491925090600160c01b90046001600160401b031661138a5760158054600180820183556000929092527f55f448fdea98c4d29eb340757ef0a66cd03dbb9538908a6a81d96026b71ec47501839055810180546001600160a01b0319166001600160a01b03871617905561133d846040612272565b8051611353916002840191602090910190612536565b5060155460018201805467ffffffffffffffff60a01b1916600160a01b6000199093016001600160401b0316929092029190911790555b8054436001600160c01b038181166001600160401b03600160c01b80860482166001019091160291909316176001600160c01b0319169190911782556040517f7a459ed083a9b267865360013a5ad6dbc07e5befe6e4f71671c940fdd4206bee916113fb91889190889088906129d1565b60405180910390a1600c80546001600160c01b0319811660016001600160c01b0392831681018316919091178084559301549216600160a01b9092046001600160401b0316600160c01b0291909117905550505050565b6000600454431415611466575060006104b5565b43600455600e54479081111561183c57600061148f600f54600e5461220f90919063ffffffff16565b90508082141561160457600f546006546114a9908261220f565b6006556040517fa42d823c276ad1990284418c303209194a75fa95a901f19752a9f65a407ffa8c906114dc908390612b87565b60405180910390a1600360009054906101000a90046001600160a01b03166001600160a01b031663c611c2c5826040518263ffffffff1660e01b81526004016000604051808303818588803b15801561153457600080fd5b505af193505050508015611546575060015b6115b557611552612c06565b8061155d575061156f565b6115693082600061128e565b506115b0565b6115b0306040518060400160405280601d81526020017f756e6b6e6f776e206572726f722e20726563656976654d696e74696e67000000815250600061128e565b6115fe565b6007546115c2908261220f565b6007556040517f12773bf711e11ec0b058c3856d441d726d2dc89113706c4f4175571f1e830c5a906115f5908390612b87565b60405180910390a15b5061183a565b80821015611666576000611623600e548461232690919063ffffffff16565b600854909150611633908261220f565b6008556040517f3fe36bcb00188390b2b40f1ab66c58f660aea67fe98b9f80667f692e1a9ab368906115f5908390612b87565b600f546006546116759161220f565b600655600f54600e5460009161169691611690908690612326565b90612326565b6008549091506116a6908261220f565b600855600f546040517fa42d823c276ad1990284418c303209194a75fa95a901f19752a9f65a407ffa8c916116da91612b87565b60405180910390a17f3fe36bcb00188390b2b40f1ab66c58f660aea67fe98b9f80667f692e1a9ab368816040516117119190612b87565b60405180910390a1600360009054906101000a90046001600160a01b03166001600160a01b031663c611c2c5600f546040518263ffffffff1660e01b81526004016000604051808303818588803b15801561176b57600080fd5b505af19350505050801561177d575060015b6117ec57611789612c06565b8061179457506117a6565b6117a03082600061128e565b506117e7565b6117e7306040518060400160405280601d81526020017f756e6b6e6f776e206572726f722e20726563656976654d696e74696e67000000815250600061128e565b611838565b600f546007546117fb9161220f565b600755600f546040517f12773bf711e11ec0b058c3856d441d726d2dc89113706c4f4175571f1e830c5a9161182f91612b87565b60405180910390a15b505b505b60115460005b81811015611c5b5760006011828154811061185957fe5b60009182526020808320909101546001600160a01b0316808352601390915260409091205490915080156118e5576001600160a01b0382166000908152601360205260409081902060001983019055517f9895eddb1e8569b1dae526135aa5cab97f982fdc3b0ff7e17920c95e3b9bda62906118d890849084906129b8565b60405180910390a1611c51565b6001600160a01b038216600090815260126020526040812054905a90506204a76881101561194f577f9b5c4be38598cb8d8b6e07727d2303d1d9fc2dfc31ad323170f5ea4dcc1f914a85870360405161193e9190612b87565b60405180910390a150505050611c5b565b620493df198101821580159061196457508083105b1561196c5750815b846001600160a01b0316636d0e8c34826040518263ffffffff1660e01b8152600401602060405180830381600088803b1580156119a857600080fd5b5087f1935050505080156119d9575060408051601f3d908101601f191682019092526119d691810190612801565b60015b611c10576119e5612c06565b806119f05750611a77565b6119fd86825a860361128e565b856001600160a01b031663e22fdece6040518163ffffffff1660e01b8152600401602060405180830381600087803b158015611a3857600080fd5b505af1158015611a4c573d6000803e3d6000fd5b505050506040513d601f19601f82011682018060405250810190611a709190612801565b5050611c0b565b60005a9050600084118015611a95575083611a928483612326565b10155b15611b6857611ac9866040518060400160405280600a8152602001696f7574206f662067617360b01b81525083860361128e565b6000866001600160a01b031663e22fdece6040518163ffffffff1660e01b8152600401602060405180830381600087803b158015611b0657600080fd5b505af1158015611b1a573d6000803e3d6000fd5b505050506040513d601f19601f82011682018060405250810190611b3e9190612801565b905080611b6257600d546001600160a01b0388166000908152601360205260409020555b50611c09565b611b9486604051806040016040528060078152602001663ab735b737bbb760c91b81525083860361128e565b856001600160a01b031663e22fdece6040518163ffffffff1660e01b8152600401602060405180830381600087803b158015611bcf57600080fd5b505af1158015611be3573d6000803e3d6000fd5b505050506040513d601f19601f82011682018060405250810190611c079190612801565b505b505b611c4d565b507fe7aa66356adbd5e839ef210626f6d8f6f72109c17fadf4c4f9ca82b315ae79b4855a8403604051611c449291906129b8565b60405180910390a15b5050505b5050600101611842565b50611c64612383565b92508215611cae57600f8390556040517f34f843cef0df42035141347873da1758a6643358831b5ba5b1580be947644f9290611ca1908590612b87565b60405180910390a1611cb4565b6000600f555b505047600e5590565b60006104b2600854611cdc60075460065461232690919063ffffffff16565b9061220f565b6000808211611d2b576040805162461bcd60e51b815260206004820152601060248201526f4469766973696f6e206279207a65726f60801b604482015290519081900360640190fd5b83611d3857506000611de3565b83830283858281611d4557fe5b041415611d5e57828181611d5557fe5b04915050611de3565b6000838681611d6957fe5b0490506000848781611d7757fe5b0690506000858781611d8557fe5b0490506000868881611d9357fe5b069050611ddb611dad88611da7868561239c565b906123f5565b611cdc611dba868661239c565b611cdc611dc7898761239c565b611cdc8d611dd58c8b61239c565b9061239c565b955050505050505b9392505050565b60115460005b818110156107d25760118054600091906000198101908110611e0e57fe5b600091825260209091200154601180546001600160a01b0390921692509080611e3357fe5b600082815260208120820160001990810180546001600160a01b03191690559091019091556040517f86d03f430c7616021073d7a71766f632f1ce19f289aa989534d9f4732253eb5991611e8991849190612b1d565b60405180910390a150600101611df0565b600080826040516020018080602001828103825283818151815260200191508051906020019080838360005b83811015611ede578181015183820152602001611ec6565b50505050905090810190601f168015611f0b5780820380516001836020036101000a031916815260200191505b50925050506040516020818303038152906040528051906020012090506000805b8651811015611f7357868181518110611f4157fe5b6020026020010151831415611f6b57858181518110611f5c57fe5b60200260200101519150611f73565b600101611f2c565b506001600160a01b038116611fbe576040805162461bcd60e51b815260206004820152600c60248201526b61646472657373207a65726f60a01b604482015290519081900360640190fd5b95945050505050565b6000611ff583836040518060400160405280600981526020016824b7333630ba34b7b760b91b815250611e9a565b6003546040519192507f4bdd1012a7d55ed9afad8675a125e1b68c7c15f712c0f3d5cddac69c3b979805916120379184916001600160a01b0390911690612b38565b60405180910390a1600380546001600160a01b0319166001600160a01b038316179055600954612071576a4a723dc6b40b8a9a0000006009555b601154806120805750506107d2565b6000816001600160401b038111801561209857600080fd5b506040519080825280602002602001820160405280156120d257816020015b6120bf6125be565b8152602001906001900390816120b75790505b50905060005b828110156121de576000601182815481106120ef57fe5b600091825260208220015460408051637afadd3960e11b815290516001600160a01b039092169350612182928a928a92869263f5f5ba7292600480840193829003018186803b15801561214157600080fd5b505afa158015612155573d6000803e3d6000fd5b505050506040513d6000823e601f3d908101601f1916820160405261217d9190810190612821565b611e9a565b83838151811061218e57fe5b6020908102919091018101516001600160a01b03928316905290821660009081526012909152604090205483518490849081106121c757fe5b6020908102919091018101510152506001016120d8565b506121e881610fdc565b5050505050565b600073fffec6c83c8bf5c3f4ae0ccf8c45ce20e4560bd76104b28161245c565b600082820183811015612269576040805162461bcd60e51b815260206004820152601b60248201527f536166654d6174683a206164646974696f6e206f766572666c6f770000000000604482015290519081900360640190fd5b90505b92915050565b606060008390508281511161228a578391505061226c565b6000836001600160401b03811180156122a257600080fd5b506040519080825280601f01601f1916602001820160405280156122cd576020820181803683370190505b50905060005b8481101561231d578281815181106122e757fe5b602001015160f81c60f81b8282815181106122fe57fe5b60200101906001600160f81b031916908160001a9053506001016122d3565b50949350505050565b60008282111561237d576040805162461bcd60e51b815260206004820152601e60248201527f536166654d6174683a207375627472616374696f6e206f766572666c6f770000604482015290519081900360640190fd5b50900390565b60006104b260065460055461232690919063ffffffff16565b6000826123ab5750600061226c565b828202828482816123b857fe5b04146122695760405162461bcd60e51b8152600401808060200182810382526021815260200180612cc06021913960400191505060405180910390fd5b600080821161244b576040805162461bcd60e51b815260206004820152601a60248201527f536166654d6174683a206469766973696f6e206279207a65726f000000000000604482015290519081900360640190fd5b81838161245457fe5b049392505050565b600154600160a01b900460ff16156124b2576040805162461bcd60e51b8152602060048201526014602482015273696e697469616c6973656420213d2066616c736560601b604482015290519081900360640190fd5b6001805460ff60a01b1916600160a01b179055600054604080516001600160a01b039283168152918316602083015280517f434a2db650703b36c824e745330d6397cdaa9ee2cc891a4938ae853e1c50b68d9281900390910190a1600080546001600160a01b039092166001600160a01b0319928316179055600180549091169055565b828054600181600116156101000203166002900490600052602060002090601f01602090048101928261256c57600085556125b2565b82601f1061258557805160ff19168380011785556125b2565b828001600101855582156125b2579182015b828111156125b2578251825591602001919060010190612597565b506105b49291506125d5565b604080518082019091526000808252602082015290565b5b808211156105b457600081556001016125d6565b600082601f8301126125fa578081fd5b8135602061260f61260a83612bb3565b612b90565b828152818101908583018385028701840188101561262b578586fd5b855b8581101561265257813561264081612caa565b8452928401929084019060010161262d565b5090979650505050505050565b600060208284031215612670578081fd5b813561226981612caa565b6000806040838503121561268d578081fd5b82356001600160401b03808211156126a3578283fd5b818501915085601f8301126126b6578283fd5b813560206126c661260a83612bb3565b82815281810190858301838502870184018b10156126e2578788fd5b8796505b848710156127045780358352600196909601959183019183016126e6565b509650508601359250508082111561271a578283fd5b50612727858286016125ea565b9150509250929050565b60006020808385031215612743578182fd5b82356001600160401b0380821115612759578384fd5b818501915085601f83011261276c578384fd5b813561277a61260a82612bb3565b818152848101908486016040808502870188018b1015612798578889fd5b8896505b848710156127f25780828c0312156127b2578889fd5b805181810181811088821117156127c557fe5b825282356127d281612caa565b81528289013589820152845260019690960195928701929081019061279c565b50909998505050505050505050565b600060208284031215612812578081fd5b81518015158114612269578182fd5b600060208284031215612832578081fd5b81516001600160401b0380821115612848578283fd5b818401915084601f83011261285b578283fd5b81518181111561286757fe5b61287a601f8201601f1916602001612b90565b9150808252856020828501011115612890578384fd5b61231d816020840160208601612bd0565b6000602082840312156128b2578081fd5b5035919050565b600080604083850312156128cb578182fd5b50508035926020909101359150565b6000815180845260208085019450808401835b838110156129125781516001600160a01b0316875295820195908201906001016128ed565b509495945050505050565b6000815180845260208085019450808401835b8381101561291257815187529582019590820190600101612930565b60008151808452612964816020860160208601612bd0565b601f01601f19169290920160200192915050565b6001600160a01b0391909116815260200190565b6001600160a01b03831681526040602082018190526000906129b09083018461294c565b949350505050565b6001600160a01b03929092168252602082015260400190565b600060018060a01b0386168252846020830152608060408301526129f8608083018561294c565b905082606083015295945050505050565b606080825284519082018190526000906020906080840190828801845b82811015612a4b5781516001600160a01b031684529284019290840190600101612a26565b50505083810382850152612a5f818761291d565b9150508281036040840152612a74818561291d565b9695505050505050565b600060a08252612a9160a083018861291d565b602083820381850152612aa4828961291d565b848103604086015287518082529092508183019082810284018301838a01865b83811015612af257601f19878403018552612ae083835161294c565b94860194925090850190600101612ac4565b50508681036060880152612b06818a6128da565b955050505050508260808301529695505050505050565b6001600160a01b039290921682521515602082015260400190565b6001600160a01b0392831681529116602082015260400190565b600060208252611de3602083018461294c565b6001600160c01b039290921682526001600160401b0316602082015260400190565b90815260200190565b6040518181016001600160401b0381118282101715612bab57fe5b604052919050565b60006001600160401b03821115612bc657fe5b5060209081020190565b60005b83811015612beb578181015183820152602001612bd3565b83811115612bfa576000848401525b50505050565b60e01c90565b600060443d1015612c16576104b5565b600481823e6308c379a0612c2a8251612c00565b14612c34576104b5565b6040513d600319016004823e80513d6001600160401b038160248401118184111715612c6357505050506104b5565b82840192508251915080821115612c7d57505050506104b5565b503d83016020828401011115612c95575050506104b5565b601f01601f1916810160200160405291505090565b6001600160a01b038116811461050457600080fdfe536166654d6174683a206d756c7469706c69636174696f6e206f766572666c6f77a2646970667358221220934cd718a795582d5c7894b76813a575409a4b5b100e30de7e8a6e168361058664736f6c63430007060033",
  "linkReferences": {},
  "deployedLinkReferences": {}
}